:020000040800F2
:10000000500400209D080008D9080008DB080008FB
:1000100000000000000000000000000000000000E0
:10002000000000000000000000000000DD080008E3
:100030000000000000000000DF080008E1080008E0
:1000400057050008000000005B0500089F09000834
:10005000AB090008CD090008CF090008D109000844
:1000600000000000D3090008D5090008D7090008DE
:10007000D9090008DB090008DD09000800000000BC
:10008000DF0900080000000000000000E10900088E
:10009000E3090008E5090008E7090008E909000884
:1000A000EB090008ED090008EF090008F109000854
:1000B000F309000810B54B49884201D1CC0C46E049
:1000C0008021C905884206D10121012000F0CEF926
:1000D0000021012027E04D49884206D1012102205C
:1000E00000F0C4F9002102201DE04949884206D1F0
:1000F0000121102000F0BAF90021102013E0454939
:10010000884206D10121202000F0B0F900212020F2
:1001100009E04149884209D18C0D0121200000F0FD
:10012000A5F90021200000F0A1F910BD3B4988424B
:1001300002D1802464020AE03949884202D1802435
:10014000A40204E05049884209D18024E40201213C
:10015000200000F081F90021200000F07DF910BDA1
:1001600010B503881F4A904206D08024E405A042BF
:1001700002D0264CA04203D12A4C1C404B8823437A
:10018000234CA04203D0284C1C400B8923430380FE
:100190004B68C3620B880385904208D01F4A904287
:1001A00005D01F4A904202D0374A904201D1897A45
:1001B00001860121818210BD0029018802D08022A0
:1001C0000A4301E03A4A0A40028070470029018848
:1001D00002D001220A4301E02C4A0A400280704703
:1001E00000000000002C0140002907D04421415AA2
:1001F000802212020A434430028070474421415A4F
:100200004904490C4430018070470000000400405C
:100210000010004000140040002000400040014059
:10022000004401408FFF0000FFFC000070B5028C0D
:10023000234B13400384058C8288838B174C1C400E
:100240000B8823431F4C2C408D894E882E4335024A
:100250002543134CA04210D1184C2C40CD892D02BF
:100260002543154C2C408D882D022543164C1440F7
:100270000A8A4E8A16433201224382808383896828
:10028000C163058470BD000000480140FEFF00000E
:10029000828B084B134007E0000000008CFF000039
:1002A000002C01401340090219438183704700006C
:1002B0007FFF0000F7FF0000FFFB0000FFF70000DA
:1002C000FFFE0000FFFD0000FFCF0000F0B50400BE
:1002D0000020514D29686A4E0C220A40082A02D09B
:1002E0000C2A17D018E0286829688002070FBF1C65
:1002F000C0204002084003D138007108484307E09D
:10030000A96A30000907090F491C00F0CDF87843AD
:10031000010002E05B4900E0310021602B685A498E
:1003200022681B061B0FCB5CDA4062602B685B0502
:100330005B0FC95CCA40A260E96AC90501D4534990
:1003400005E02968490401D4510800E09108E16002
:1003500080210902EA6A520601D44D4A00E00A00EF
:100360002261EA6AD20601D4320000E022686261AA
:100370000322EB6A134001D1A26804E0EB6A134048
:10038000012B02D12268A2610AE0EB6A1340022B22
:1003900001D1A16104E0EB6A1A40032A00D1A661F1
:1003A000C0229202EB6A134001D1A26805E0EB6A19
:1003B00013404F00BB4202D12268E2610BE0EB6ABE
:1003C00013408F00BB4201D1E16104E0EB6A1340AE
:1003D000934200D1E661C0221203EB6A134001D1BF
:1003E000A1680BE0EB6A1340CF00BB4201D121684A
:1003F00004E0EB6A13400F01BB4201D1216204E02B
:10040000E96A1140914200D12662E96A090600D4E6
:100410001C486062F0BD0000041002401D4A002923
:10042000116802D008431060704781431160704723
:10043000194A0029116802D00843106070478143AF
:1004400011607047154A0029116802D008431060F6
:100450007047814311607047114A0029116802D02A
:100460000843106070478143116070470D4A0029AE
:10047000116802D0084310607047814311607047D3
:1004800000127A00006CDC023C000020809FD50046
:100490001280000014100240181002402810024080
:1004A0000C100240101002400022030A8B420BD2B3
:1004B00003098B4219D243088B422ED2411A00D233
:1004C0000146524110467047FF2209023FD01206F2
:1004D0008B4205D3121209028B4201D31212090278
:1004E00003098B4219D300E0090AC3098B4201D3E7
:1004F000CB01C01A524183098B4201D38B01C01A30
:10050000524143098B4201D34B01C01A52410309A6
:100510008B4201D30B01C01A5241C3088B4201D355
:10052000CB00C01A524183088B4201D38B00C01A02
:10053000524143088B4201D34B00C01A52418842BA
:1005400000D3401A5241CFD201461046704708B539
:1005500000F002F808BDFEE77047FEE710B59021F5
:10056000C905884202D18024A4021CE02D4988429A
:1005700002D18024E40216E02B49884202D1802473
:10058000240310E02949884202D1802464030AE050
:100590002749884202D18024A40304E025498842E7
:1005A00009D18024E40301212000FFF74BFF002143
:1005B0002000FFF747FF10BDF0B5002301229A404D
:1005C0000C681440944228D15C000326A640F543F1
:1005D0000E79012E01D0022E0FD186682E40866042
:1005E00086684F79A7403743876086889643868020
:1005F00082888E799E401643868002682A40026077
:1006000002680E79A64016430660C2681540C560B0
:10061000C268CD79A5401543C5605B1C102BCDD3B6
:10062000F0BD00000004004800080048000C00482D
:100630000010004800140048816170470185704730
:1006400010B5CB089B00C0184907C90E036A0F24D8
:100650008C40A3430362036A8A401A43026210BDBE
:1006600082B03348016801220A4302604168314A7E
:100670000A4042600168304A0A40026001682F4A1D
:100680000A40026041682E4A0A404260C16A0F2255
:100690009143C162016B2B4A0A400263416B012204
:1006A000914341630021816001910091016812042E
:1006B0000A43026001688022920211400091019970
:1006C000491C01910099002904D10199A022D2016D
:1006D0009142EFD101688903CA0F00920099012964
:1006E00024D11121184A116041684160416841607C
:1006F0004168164A0A4042604168882252030A4310
:1007000042600168802252040A4302600168890144
:10071000FCD54168032291434160416802220A43AB
:10072000426041680C220A40082AFAD102B07047A0
:10073000001002400CB8FF08FFFFF6FEFFFFFBFFB2
:10074000FFFFC0FFACFEFFFF00200240FF7FC0FFA5
:1007500030B58BB001214804FFF760FE9024E4051A
:1007600002220A212000FFF76BFF2000FFF7F6FEB0
:100770008020C00000906846022101710321417170
:1007800069462000FFF718FF0121C802FFF750FE5D
:10079000164C2000FFF78EFC3B200390002502A89A
:1007A00005600581857202A92000FFF7D9FC05A824
:1007B00060210180012141808580C560079505A9E0
:1007C0002000FFF733FD08212000FFF761FD012124
:1007D0002000FFF7F1FC01212000FFF7F7FC0121C9
:1007E0002000FFF701FD0BB030BD0000002C0140E0
:1007F00080B51248FFF76AFD11480068FA218900A8
:10080000FFF752FE401E80214904884214D20D4950
:1008100048600D4802681202120AC0231B061343E7
:100820000360002088600720086000F00FF8FFF7E1
:100830008FFF00F022F8FCE7FEE700BF0000002079
:100840003800002010E000E020ED00E01CB50121A0
:100850004804FFF7E3FD9024E4052000FFF77EFE47
:100860001020009001206946087100228A71C87129
:1008700048712000FFF7A0FE13BD80B59020C00591
:1008800005490978002903D01021FFF7D5FE01BDE5
:100890001021FFF7D3FE01BD4E000020094880F370
:1008A000088804200168090E1F22914205D10648DC
:1008B0000121016005480021016005488047054885
:1008C00000470000500400201810024000000140C2
:1008D00061060008C10900087047FEE770477047CD
:1008E00010B508480188FA225200914201DA491CE9
:1008F00005E00021044A137801245C401470018053
:1009000010BD00004C0000204E00002030B401213A
:100910000268001D002A0FD00368C318446808301D
:100920000C4202D04D466D1E64191D6825601B1DCA
:10093000241D121FECD0F8E730BC704710B50749F2
:1009400079441831064C7C44163404E0081D0A68CA
:10095000891888470100A142F8D110BD08000000A5
:1009600018000000A9FFFFFF5000000088000000F1
:10097000000000200000000000F00BF8002801D06B
:10098000FFF7DCFF0020C046C046FFF731FF00F054
:1009900002F80120704780B500F002F801BDFEE7C3
:1009A0000746384600F002F8FBE7FEE780B5C04690
:1009B000C046024A11001820ABBEFBE72600020029
:1009C000C046C046C046C046FFF7D6FFFEE7FEE77A
:1009D000FEE7FEE7FEE7FEE7FEE7FEE7FEE7FEE7EF
:1009E000FEE7FEE7FEE7FEE7FEE7FEE7FEE7FEE7DF
:1009F000FEE7FEE70000000000000000000000002D
:100A000000000000000000000000000000000000E6
:100A100000000000000000000000000000000000D6
:100A2000000000000102030406070809006CDC0254
:100A30000000000001020304010203040607080984
:040A400000000000B2
:04000005080009C125
:00000001FF
